{
  "_format": "hh-sol-artifact-1",
  "contractName": "OpportunityManager",
  "sourceName": "contracts/OpportunityManager.sol",
  "abi": [
    {
      "inputs": [],
      "stateMutability": "nonpayable",
      "type": "constructor"
    },
    {
      "anonymous": false,
      "inputs": [
        {
          "indexed": true,
          "internalType": "uint256",
          "name": "applicationId",
          "type": "uint256"
        },
        {
          "indexed": false,
          "internalType": "string",
          "name": "status",
          "type": "string"
        }
      ],
      "name": "ApplicationStatusUpdated",
      "type": "event"
    },
    {
      "anonymous": false,
      "inputs": [
        {
          "indexed": true,
          "internalType": "uint256",
          "name": "applicationId",
          "type": "uint256"
        },
        {
          "indexed": true,
          "internalType": "uint256",
          "name": "opportunityId",
          "type": "uint256"
        },
        {
          "indexed": true,
          "internalType": "address",
          "name": "applicant",
          "type": "address"
        }
      ],
      "name": "ApplicationSubmitted",
      "type": "event"
    },
    {
      "anonymous": false,
      "inputs": [
        {
          "indexed": true,
          "internalType": "uint256",
          "name": "opportunityId",
          "type": "uint256"
        },
        {
          "indexed": true,
          "internalType": "address",
          "name": "provider",
          "type": "address"
        },
        {
          "indexed": false,
          "internalType": "string",
          "name": "title",
          "type": "string"
        }
      ],
      "name": "OpportunityCreated",
      "type": "event"
    },
    {
      "anonymous": false,
      "inputs": [
        {
          "indexed": true,
          "internalType": "address",
          "name": "previousOwner",
          "type": "address"
        },
        {
          "indexed": true,
          "internalType": "address",
          "name": "newOwner",
          "type": "address"
        }
      ],
      "name": "OwnershipTransferred",
      "type": "event"
    },
    {
      "inputs": [
        {
          "internalType": "address",
          "name": "",
          "type": "address"
        },
        {
          "internalType": "uint256",
          "name": "",
          "type": "uint256"
        }
      ],
      "name": "applicantApplications",
      "outputs": [
        {
          "internalType": "uint256",
          "name": "",
          "type": "uint256"
        }
      ],
      "stateMutability": "view",
      "type": "function"
    },
    {
      "inputs": [
        {
          "internalType": "uint256",
          "name": "",
          "type": "uint256"
        }
      ],
      "name": "applications",
      "outputs": [
        {
          "internalType": "uint256",
          "name": "id",
          "type": "uint256"
        },
        {
          "internalType": "uint256",
          "name": "opportunityId",
          "type": "uint256"
        },
        {
          "internalType": "address",
          "name": "applicant",
          "type": "address"
        },
        {
          "internalType": "string",
          "name": "githubUsername",
          "type": "string"
        },
        {
          "internalType": "string",
          "name": "email",
          "type": "string"
        },
        {
          "internalType": "string",
          "name": "status",
          "type": "string"
        },
        {
          "internalType": "uint256",
          "name": "createdAt",
          "type": "uint256"
        }
      ],
      "stateMutability": "view",
      "type": "function"
    },
    {
      "inputs": [
        {
          "internalType": "string",
          "name": "_title",
          "type": "string"
        },
        {
          "internalType": "string",
          "name": "_description",
          "type": "string"
        },
        {
          "internalType": "string",
          "name": "_requirements",
          "type": "string"
        }
      ],
      "name": "createOpportunity",
      "outputs": [
        {
          "internalType": "uint256",
          "name": "",
          "type": "uint256"
        }
      ],
      "stateMutability": "nonpayable",
      "type": "function"
    },
    {
      "inputs": [
        {
          "internalType": "address",
          "name": "_applicant",
          "type": "address"
        }
      ],
      "name": "getApplicantApplications",
      "outputs": [
        {
          "internalType": "uint256[]",
          "name": "",
          "type": "uint256[]"
        }
      ],
      "stateMutability": "view",
      "type": "function"
    },
    {
      "inputs": [
        {
          "internalType": "uint256",
          "name": "_applicationId",
          "type": "uint256"
        }
      ],
      "name": "getApplication",
      "outputs": [
        {
          "components": [
            {
              "internalType": "uint256",
              "name": "id",
              "type": "uint256"
            },
            {
              "internalType": "uint256",
              "name": "opportunityId",
              "type": "uint256"
            },
            {
              "internalType": "address",
              "name": "applicant",
              "type": "address"
            },
            {
              "internalType": "string[]",
              "name": "certificateIds",
              "type": "string[]"
            },
            {
              "internalType": "string",
              "name": "githubUsername",
              "type": "string"
            },
            {
              "internalType": "string",
              "name": "email",
              "type": "string"
            },
            {
              "internalType": "string",
              "name": "status",
              "type": "string"
            },
            {
              "internalType": "uint256",
              "name": "createdAt",
              "type": "uint256"
            }
          ],
          "internalType": "struct OpportunityManager.Application",
          "name": "",
          "type": "tuple"
        }
      ],
      "stateMutability": "view",
      "type": "function"
    },
    {
      "inputs": [
        {
          "internalType": "uint256",
          "name": "_opportunityId",
          "type": "uint256"
        }
      ],
      "name": "getOpportunity",
      "outputs": [
        {
          "components": [
            {
              "internalType": "uint256",
              "name": "id",
              "type": "uint256"
            },
            {
              "internalType": "address",
              "name": "provider",
              "type": "address"
            },
            {
              "internalType": "string",
              "name": "title",
              "type": "string"
            },
            {
              "internalType": "string",
              "name": "description",
              "type": "string"
            },
            {
              "internalType": "string",
              "name": "requirements",
              "type": "string"
            },
            {
              "internalType": "bool",
              "name": "isActive",
              "type": "bool"
            },
            {
              "internalType": "uint256",
              "name": "createdAt",
              "type": "uint256"
            }
          ],
          "internalType": "struct OpportunityManager.Opportunity",
          "name": "",
          "type": "tuple"
        }
      ],
      "stateMutability": "view",
      "type": "function"
    },
    {
      "inputs": [
        {
          "internalType": "uint256",
          "name": "_opportunityId",
          "type": "uint256"
        }
      ],
      "name": "getOpportunityApplications",
      "outputs": [
        {
          "internalType": "uint256[]",
          "name": "",
          "type": "uint256[]"
        }
      ],
      "stateMutability": "view",
      "type": "function"
    },
    {
      "inputs": [],
      "name": "getTotalOpportunities",
      "outputs": [
        {
          "internalType": "uint256",
          "name": "",
          "type": "uint256"
        }
      ],
      "stateMutability": "view",
      "type": "function"
    },
    {
      "inputs": [
        {
          "internalType": "uint256",
          "name": "",
          "type": "uint256"
        }
      ],
      "name": "opportunities",
      "outputs": [
        {
          "internalType": "uint256",
          "name": "id",
          "type": "uint256"
        },
        {
          "internalType": "address",
          "name": "provider",
          "type": "address"
        },
        {
          "internalType": "string",
          "name": "title",
          "type": "string"
        },
        {
          "internalType": "string",
          "name": "description",
          "type": "string"
        },
        {
          "internalType": "string",
          "name": "requirements",
          "type": "string"
        },
        {
          "internalType": "bool",
          "name": "isActive",
          "type": "bool"
        },
        {
          "internalType": "uint256",
          "name": "createdAt",
          "type": "uint256"
        }
      ],
      "stateMutability": "view",
      "type": "function"
    },
    {
      "inputs": [
        {
          "internalType": "uint256",
          "name": "",
          "type": "uint256"
        },
        {
          "internalType": "uint256",
          "name": "",
          "type": "uint256"
        }
      ],
      "name": "opportunityApplications",
      "outputs": [
        {
          "internalType": "uint256",
          "name": "",
          "type": "uint256"
        }
      ],
      "stateMutability": "view",
      "type": "function"
    },
    {
      "inputs": [],
      "name": "owner",
      "outputs": [
        {
          "internalType": "address",
          "name": "",
          "type": "address"
        }
      ],
      "stateMutability": "view",
      "type": "function"
    },
    {
      "inputs": [],
      "name": "renounceOwnership",
      "outputs": [],
      "stateMutability": "nonpayable",
      "type": "function"
    },
    {
      "inputs": [
        {
          "internalType": "uint256",
          "name": "_opportunityId",
          "type": "uint256"
        },
        {
          "internalType": "string[]",
          "name": "_certificateIds",
          "type": "string[]"
        },
        {
          "internalType": "string",
          "name": "_githubUsername",
          "type": "string"
        },
        {
          "internalType": "string",
          "name": "_email",
          "type": "string"
        }
      ],
      "name": "submitApplication",
      "outputs": [
        {
          "internalType": "uint256",
          "name": "",
          "type": "uint256"
        }
      ],
      "stateMutability": "nonpayable",
      "type": "function"
    },
    {
      "inputs": [
        {
          "internalType": "uint256",
          "name": "_opportunityId",
          "type": "uint256"
        }
      ],
      "name": "toggleOpportunityStatus",
      "outputs": [],
      "stateMutability": "nonpayable",
      "type": "function"
    },
    {
      "inputs": [
        {
          "internalType": "address",
          "name": "newOwner",
          "type": "address"
        }
      ],
      "name": "transferOwnership",
      "outputs": [],
      "stateMutability": "nonpayable",
      "type": "function"
    },
    {
      "inputs": [
        {
          "internalType": "uint256",
          "name": "_applicationId",
          "type": "uint256"
        },
        {
          "internalType": "string",
          "name": "_status",
          "type": "string"
        }
      ],
      "name": "updateApplicationStatus",
      "outputs": [],
      "stateMutability": "nonpayable",
      "type": "function"
    }
  ],
  "bytecode": "0x608060405234801561001057600080fd5b5061001a3361001f565b61006f565b600080546001600160a01b038381166001600160a01b0319831681178455604051919092169283917f8be0079c531659141344cd1fd0a4f28419497f9722a3daafe3b4186f6b6457e09190a35050565b611cf88061007e6000396000f3fe608060405234801561001057600080fd5b50600436106101005760003560e01c80638ad9cbd111610097578063acd6c98f11610066578063acd6c98f14610217578063b3d9835c1461023d578063dfefadff14610250578063f2fde38b1461027657600080fd5b80638ad9cbd1146101b65780638da5cb5b146101c95780639ac363bc146101e45780639ce39059146101f757600080fd5b80635d4111a7116100d35780635d4111a71461017357806361446caa146101865780636a44aff414610199578063715018a6146101ae57600080fd5b806310bcc52a146101055780631f2f4bfd1461012b578063486caf7c1461014b57806353e166c614610153575b600080fd5b610118610113366004611523565b610289565b6040519081526020015b60405180910390f35b61013e610139366004611545565b6102ba565b60405161012291906115f9565b6101186105e5565b6101666101613660046116d3565b6105f5565b60405161012291906116f5565b610118610181366004611739565b610661565b61011861019436600461181a565b61067d565b6101ac6101a7366004611545565b6107ae565b005b6101ac610853565b6101ac6101c43660046118a2565b610867565b6000546040516001600160a01b039091168152602001610122565b6101666101f2366004611545565b610a62565b61020a610205366004611545565b610ac2565b60405161012291906118e9565b61022a610225366004611545565b610d1d565b6040516101229796959493929190611981565b61011861024b3660046119e8565b610efe565b61026361025e366004611545565b611163565b6040516101229796959493929190611afe565b6101ac6102843660046116d3565b611343565b600560205281600052604060002081815481106102a557600080fd5b90600052602060002001600091509150505481565b61030b604051806101000160405280600081526020016000815260200160006001600160a01b0316815260200160608152602001606081526020016060815260200160608152602001600081525090565b60008281526004602090815260408083208151610100810183528154815260018201548185015260028201546001600160a01b031681840152600382018054845181870281018701909552808552919592946060870194939192919084015b8282101561041657838290600052602060002001805461038990611b66565b80601f01602080910402602001604051908101604052809291908181526020018280546103b590611b66565b80156104025780601f106103d757610100808354040283529160200191610402565b820191906000526020600020905b8154815290600101906020018083116103e557829003601f168201915b50505050508152602001906001019061036a565b50505050815260200160048201805461042e90611b66565b80601f016020809104026020016040519081016040528092919081815260200182805461045a90611b66565b80156104a75780601f1061047c576101008083540402835291602001916104a7565b820191906000526020600020905b81548152906001019060200180831161048a57829003601f168201915b505050505081526020016005820180546104c090611b66565b80601f01602080910402602001604051908101604052809291908181526020018280546104ec90611b66565b80156105395780601f1061050e57610100808354040283529160200191610539565b820191906000526020600020905b81548152906001019060200180831161051c57829003601f168201915b5050505050815260200160068201805461055290611b66565b80601f016020809104026020016040519081016040528092919081815260200182805461057e90611b66565b80156105cb5780601f106105a0576101008083540402835291602001916105cb565b820191906000526020600020905b8154815290600101906020018083116105ae57829003601f168201915b505050505081526020016007820154815250509050919050565b60006105f060015490565b905090565b6001600160a01b03811660009081526006602090815260409182902080548351818402810184019094528084526060939283018282801561065557602002820191906000526020600020905b815481526020019060010190808311610641575b50505050509050919050565b600660205281600052604060002081815481106102a557600080fd5b600061068d600180546001019055565b600061069860015490565b6040805160e0810182528281523360208083019182528284018a8152606084018a905260808401899052600160a085018190524260c0860152600087815260039093529490912083518155915193820180546001600160a01b0319166001600160a01b0390951694909417909355915192935091600282019061071b9082611bef565b50606082015160038201906107309082611bef565b50608082015160048201906107459082611bef565b5060a082015160058201805460ff191691151591909117905560c090910151600690910155604051339082907f94609493c5fd727561f99e3e14b79cb67bac7ee8d101119ec3b2156508a4f7dd9061079e908990611caf565b60405180910390a3949350505050565b6000818152600360205260409020600101546001600160a01b031633146108305760405162461bcd60e51b815260206004820152602b60248201527f4f6e6c79206f70706f7274756e6974792070726f76696465722063616e20746f60448201526a67676c652073746174757360a81b60648201526084015b60405180910390fd5b6000908152600360205260409020600501805460ff19811660ff90911615179055565b61085b6113bc565b6108656000611416565b565b6040805180820190915260088152671858d8d95c1d195960c21b6020918201528151908201207f7d104161c45a3245104f4140c83d1fe11fd80f76a0a34cf58df6d5011f4b287014806108fe57506040805180820190915260088152671c995a9958dd195960c21b6020918201528151908201207f5e679716a01be890d854f2c1c5cb5336603215e65ff238044a5b11c586f61c1d145b8061094c575060408051808201909152600781526670656e64696e6760c81b6020918201528151908201207fb4d829413f0d2c4d74c8ff63e02c9925119a56008208dd29db841c5f35ed3ad3145b6109895760405162461bcd60e51b815260206004820152600e60248201526d496e76616c69642073746174757360901b6044820152606401610827565b600082815260046020908152604080832060018082015485526003909352922001546001600160a01b03163314610a165760405162461bcd60e51b815260206004820152602b60248201527f4f6e6c79206f70706f7274756e6974792070726f76696465722063616e20757060448201526a646174652073746174757360a81b6064820152608401610827565b60068101610a248382611bef565b50827f982d2f50711b24245cf16c2aeb3f5f7b969553aa8d2b227e40edd3619f83fe5983604051610a559190611caf565b60405180910390a2505050565b60008181526005602090815260409182902080548351818402810184019094528084526060939283018282801561065557602002820191906000526020600020908154815260200190600101908083116106415750505050509050919050565b610b0d6040518060e001604052806000815260200160006001600160a01b03168152602001606081526020016060815260200160608152602001600015158152602001600081525090565b600082815260036020908152604091829020825160e0810184528154815260018201546001600160a01b0316928101929092526002810180549293919291840191610b5790611b66565b80601f0160208091040260200160405190810160405280929190818152602001828054610b8390611b66565b8015610bd05780601f10610ba557610100808354040283529160200191610bd0565b820191906000526020600020905b815481529060010190602001808311610bb357829003601f168201915b50505050508152602001600382018054610be990611b66565b80601f0160208091040260200160405190810160405280929190818152602001828054610c1590611b66565b8015610c625780601f10610c3757610100808354040283529160200191610c62565b820191906000526020600020905b815481529060010190602001808311610c4557829003601f168201915b50505050508152602001600482018054610c7b90611b66565b80601f0160208091040260200160405190810160405280929190818152602001828054610ca790611b66565b8015610cf45780601f10610cc957610100808354040283529160200191610cf4565b820191906000526020600020905b815481529060010190602001808311610cd757829003601f168201915b5050509183525050600582015460ff161515602082015260069091015460409091015292915050565b60036020526000908152604090208054600182015460028301805492936001600160a01b0390921692610d4f90611b66565b80601f0160208091040260200160405190810160405280929190818152602001828054610d7b90611b66565b8015610dc85780601f10610d9d57610100808354040283529160200191610dc8565b820191906000526020600020905b815481529060010190602001808311610dab57829003601f168201915b505050505090806003018054610ddd90611b66565b80601f0160208091040260200160405190810160405280929190818152602001828054610e0990611b66565b8015610e565780601f10610e2b57610100808354040283529160200191610e56565b820191906000526020600020905b815481529060010190602001808311610e3957829003601f168201915b505050505090806004018054610e6b90611b66565b80601f0160208091040260200160405190810160405280929190818152602001828054610e9790611b66565b8015610ee45780601f10610eb957610100808354040283529160200191610ee4565b820191906000526020600020905b815481529060010190602001808311610ec757829003601f168201915b505050506005830154600690930154919260ff1691905087565b60008481526003602052604081206005015460ff16610f5f5760405162461bcd60e51b815260206004820152601960248201527f4f70706f7274756e697479206973206e6f7420616374697665000000000000006044820152606401610827565b600085815260036020526040902060010154336001600160a01b0390911603610fe15760405162461bcd60e51b815260206004820152602e60248201527f50726f76696465722063616e6e6f74206170706c7920746f207468656972206f60448201526d776e206f70706f7274756e69747960901b6064820152608401610827565b610fef600280546001019055565b6000610ffa60025490565b604080516101008101825282815260208082018a815233838501908152606084018b8152608085018b905260a085018a905285518087018752600781526670656e64696e6760c81b8186015260c08601524260e0860152600087815260048552959095208451815591516001830155516002820180546001600160a01b0319166001600160a01b039092169190911790559251805194955091936110a49260038501920190611466565b50608082015160048201906110b99082611bef565b5060a082015160058201906110ce9082611bef565b5060c082015160068201906110e39082611bef565b5060e09190910151600790910155600086815260056020908152604080832080546001818101835591855283852001859055338085526006845282852080549283018155855292842001849055519091889184917ffdb73f695bc6f43d03128339b6d99121833f5cb8d65f8cb3ffc6abe2e08a0a5b91a495945050505050565b60046020819052600091825260409091208054600182015460028301549383018054929491936001600160a01b039092169261119e90611b66565b80601f01602080910402602001604051908101604052809291908181526020018280546111ca90611b66565b80156112175780601f106111ec57610100808354040283529160200191611217565b820191906000526020600020905b8154815290600101906020018083116111fa57829003601f168201915b50505050509080600501805461122c90611b66565b80601f016020809104026020016040519081016040528092919081815260200182805461125890611b66565b80156112a55780601f1061127a576101008083540402835291602001916112a5565b820191906000526020600020905b81548152906001019060200180831161128857829003601f168201915b5050505050908060060180546112ba90611b66565b80601f01602080910402602001604051908101604052809291908181526020018280546112e690611b66565b80156113335780601f1061130857610100808354040283529160200191611333565b820191906000526020600020905b81548152906001019060200180831161131657829003601f168201915b5050505050908060070154905087565b61134b6113bc565b6001600160a01b0381166113b05760405162461bcd60e51b815260206004820152602660248201527f4f776e61626c653a206e6577206f776e657220697320746865207a65726f206160448201526564647265737360d01b6064820152608401610827565b6113b981611416565b50565b6000546001600160a01b031633146108655760405162461bcd60e51b815260206004820181905260248201527f4f776e61626c653a2063616c6c6572206973206e6f7420746865206f776e65726044820152606401610827565b600080546001600160a01b038381166001600160a01b0319831681178455604051919092169283917f8be0079c531659141344cd1fd0a4f28419497f9722a3daafe3b4186f6b6457e09190a35050565b8280548282559060005260206000209081019282156114ac579160200282015b828111156114ac578251829061149c9082611bef565b5091602001919060010190611486565b506114b89291506114bc565b5090565b808211156114b85760006114d082826114d9565b506001016114bc565b5080546114e590611b66565b6000825580601f106114f5575050565b601f0160209004906000526020600020908101906113b991905b808211156114b8576000815560010161150f565b6000806040838503121561153657600080fd5b50508035926020909101359150565b60006020828403121561155757600080fd5b5035919050565b6000815180845260005b8181101561158457602081850181015186830182015201611568565b506000602082860101526020601f19601f83011685010191505092915050565b600081518084526020808501808196508360051b8101915082860160005b858110156115ec5782840389526115da84835161155e565b988501989350908401906001016115c2565b5091979650505050505050565b6020815281516020820152602082015160408201526000604083015161162a60608401826001600160a01b03169052565b5060608301516101008060808501526116476101208501836115a4565b91506080850151601f19808685030160a0870152611665848361155e565b935060a08701519150808685030160c0870152611682848361155e565b935060c08701519150808685030160e0870152506116a0838261155e565b92505060e085015181850152508091505092915050565b80356001600160a01b03811681146116ce57600080fd5b919050565b6000602082840312156116e557600080fd5b6116ee826116b7565b9392505050565b6020808252825182820181905260009190848201906040850190845b8181101561172d57835183529284019291840191600101611711565b50909695505050505050565b6000806040838503121561174c57600080fd5b611755836116b7565b946020939093013593505050565b634e487b7160e01b600052604160045260246000fd5b604051601f8201601f1916810167ffffffffffffffff811182821017156117a2576117a2611763565b604052919050565b600082601f8301126117bb57600080fd5b813567ffffffffffffffff8111156117d5576117d5611763565b6117e8601f8201601f1916602001611779565b8181528460208386010111156117fd57600080fd5b816020850160208301376000918101602001919091529392505050565b60008060006060848603121561182f57600080fd5b833567ffffffffffffffff8082111561184757600080fd5b611853878388016117aa565b9450602086013591508082111561186957600080fd5b611875878388016117aa565b9350604086013591508082111561188b57600080fd5b50611898868287016117aa565b9150509250925092565b600080604083850312156118b557600080fd5b82359150602083013567ffffffffffffffff8111156118d357600080fd5b6118df858286016117aa565b9150509250929050565b602081528151602082015260018060a01b0360208301511660408201526000604083015160e0606084015261192261010084018261155e565b90506060840151601f1980858403016080860152611940838361155e565b925060808601519150808584030160a08601525061195e828261155e565b91505060a0840151151560c084015260c084015160e08401528091505092915050565b8781526001600160a01b038716602082015260e0604082018190526000906119ab9083018861155e565b82810360608401526119bd818861155e565b905082810360808401526119d1818761155e565b94151560a0840152505060c0015295945050505050565b600080600080608085870312156119fe57600080fd5b8435935060208086013567ffffffffffffffff80821115611a1e57600080fd5b818801915088601f830112611a3257600080fd5b813581811115611a4457611a44611763565b8060051b611a53858201611779565b918252838101850191858101908c841115611a6d57600080fd5b86860192505b83831015611aa957823585811115611a8b5760008081fd5b611a998e89838a01016117aa565b8352509186019190860190611a73565b98505050506040880135925080831115611ac257600080fd5b611ace89848a016117aa565b94506060880135925080831115611ae457600080fd5b5050611af2878288016117aa565b91505092959194509250565b87815286602082015260018060a01b038616604082015260e060608201526000611b2b60e083018761155e565b8281036080840152611b3d818761155e565b905082810360a0840152611b51818661155e565b9150508260c083015298975050505050505050565b600181811c90821680611b7a57607f821691505b602082108103611b9a57634e487b7160e01b600052602260045260246000fd5b50919050565b601f821115611bea57600081815260208120601f850160051c81016020861015611bc75750805b601f850160051c820191505b81811015611be657828155600101611bd3565b5050505b505050565b815167ffffffffffffffff811115611c0957611c09611763565b611c1d81611c178454611b66565b84611ba0565b602080601f831160018114611c525760008415611c3a5750858301515b600019600386901b1c1916600185901b178555611be6565b600085815260208120601f198616915b82811015611c8157888601518255948401946001909101908401611c62565b5085821015611c9f5787850151600019600388901b60f8161c191681555b5050505050600190811b01905550565b6020815260006116ee602083018461155e56fea26469706673582212205ec3d1ffca7b4ae15e37a31f4d8c392fcfa1698b2c312c86738ffc0424d41eba64736f6c63430008140033",
  "linkReferences": {},
  "deployedLinkReferences": {}
}