{
  "_format": "hh-sol-artifact-1",
  "contractName": "SoulboundCertificate",
  "sourceName": "contracts/SoulboundCertificate.sol",
  "abi": [
    {
      "inputs": [],
      "stateMutability": "nonpayable",
      "type": "constructor"
    },
    {
      "anonymous": false,
      "inputs": [
        {
          "indexed": true,
          "internalType": "address",
          "name": "owner",
          "type": "address"
        },
        {
          "indexed": true,
          "internalType": "address",
          "name": "approved",
          "type": "address"
        },
        {
          "indexed": true,
          "internalType": "uint256",
          "name": "tokenId",
          "type": "uint256"
        }
      ],
      "name": "Approval",
      "type": "event"
    },
    {
      "anonymous": false,
      "inputs": [
        {
          "indexed": true,
          "internalType": "address",
          "name": "owner",
          "type": "address"
        },
        {
          "indexed": true,
          "internalType": "address",
          "name": "operator",
          "type": "address"
        },
        {
          "indexed": false,
          "internalType": "bool",
          "name": "approved",
          "type": "bool"
        }
      ],
      "name": "ApprovalForAll",
      "type": "event"
    },
    {
      "anonymous": false,
      "inputs": [
        {
          "indexed": true,
          "internalType": "uint256",
          "name": "tokenId",
          "type": "uint256"
        },
        {
          "indexed": true,
          "internalType": "address",
          "name": "recipient",
          "type": "address"
        },
        {
          "indexed": true,
          "internalType": "address",
          "name": "issuer",
          "type": "address"
        },
        {
          "indexed": false,
          "internalType": "string",
          "name": "ipfsHash",
          "type": "string"
        },
        {
          "indexed": false,
          "internalType": "uint256",
          "name": "timestamp",
          "type": "uint256"
        }
      ],
      "name": "CertificateIssued",
      "type": "event"
    },
    {
      "anonymous": false,
      "inputs": [
        {
          "indexed": true,
          "internalType": "address",
          "name": "actor",
          "type": "address"
        },
        {
          "indexed": true,
          "internalType": "address",
          "name": "target",
          "type": "address"
        },
        {
          "indexed": false,
          "internalType": "string",
          "name": "action",
          "type": "string"
        },
        {
          "indexed": false,
          "internalType": "string",
          "name": "details",
          "type": "string"
        },
        {
          "indexed": false,
          "internalType": "uint256",
          "name": "timestamp",
          "type": "uint256"
        }
      ],
      "name": "IssuerActivity",
      "type": "event"
    },
    {
      "anonymous": false,
      "inputs": [
        {
          "indexed": true,
          "internalType": "address",
          "name": "issuer",
          "type": "address"
        }
      ],
      "name": "IssuerAuthorized",
      "type": "event"
    },
    {
      "anonymous": false,
      "inputs": [
        {
          "indexed": true,
          "internalType": "address",
          "name": "requester",
          "type": "address"
        },
        {
          "indexed": true,
          "internalType": "address",
          "name": "approver",
          "type": "address"
        },
        {
          "indexed": false,
          "internalType": "uint256",
          "name": "timestamp",
          "type": "uint256"
        }
      ],
      "name": "IssuerRequestApproved",
      "type": "event"
    },
    {
      "anonymous": false,
      "inputs": [
        {
          "indexed": true,
          "internalType": "address",
          "name": "requester",
          "type": "address"
        },
        {
          "indexed": true,
          "internalType": "address",
          "name": "rejector",
          "type": "address"
        },
        {
          "indexed": false,
          "internalType": "uint256",
          "name": "timestamp",
          "type": "uint256"
        }
      ],
      "name": "IssuerRequestRejected",
      "type": "event"
    },
    {
      "anonymous": false,
      "inputs": [
        {
          "indexed": true,
          "internalType": "address",
          "name": "requester",
          "type": "address"
        },
        {
          "indexed": false,
          "internalType": "string",
          "name": "reason",
          "type": "string"
        },
        {
          "indexed": false,
          "internalType": "uint256",
          "name": "timestamp",
          "type": "uint256"
        }
      ],
      "name": "IssuerRequestSubmitted",
      "type": "event"
    },
    {
      "anonymous": false,
      "inputs": [
        {
          "indexed": true,
          "internalType": "address",
          "name": "issuer",
          "type": "address"
        }
      ],
      "name": "IssuerRevoked",
      "type": "event"
    },
    {
      "anonymous": false,
      "inputs": [
        {
          "indexed": true,
          "internalType": "address",
          "name": "previousOwner",
          "type": "address"
        },
        {
          "indexed": true,
          "internalType": "address",
          "name": "newOwner",
          "type": "address"
        }
      ],
      "name": "OwnershipTransferred",
      "type": "event"
    },
    {
      "anonymous": false,
      "inputs": [
        {
          "indexed": true,
          "internalType": "address",
          "name": "from",
          "type": "address"
        },
        {
          "indexed": true,
          "internalType": "address",
          "name": "to",
          "type": "address"
        },
        {
          "indexed": true,
          "internalType": "uint256",
          "name": "tokenId",
          "type": "uint256"
        }
      ],
      "name": "Transfer",
      "type": "event"
    },
    {
      "inputs": [
        {
          "internalType": "address",
          "name": "to",
          "type": "address"
        },
        {
          "internalType": "uint256",
          "name": "tokenId",
          "type": "uint256"
        }
      ],
      "name": "approve",
      "outputs": [],
      "stateMutability": "nonpayable",
      "type": "function"
    },
    {
      "inputs": [
        {
          "internalType": "address",
          "name": "requester",
          "type": "address"
        }
      ],
      "name": "approveIssuerRequest",
      "outputs": [],
      "stateMutability": "nonpayable",
      "type": "function"
    },
    {
      "inputs": [
        {
          "internalType": "address",
          "name": "issuer",
          "type": "address"
        }
      ],
      "name": "authorizeIssuer",
      "outputs": [],
      "stateMutability": "nonpayable",
      "type": "function"
    },
    {
      "inputs": [
        {
          "internalType": "address",
          "name": "",
          "type": "address"
        }
      ],
      "name": "authorizedIssuers",
      "outputs": [
        {
          "internalType": "bool",
          "name": "",
          "type": "bool"
        }
      ],
      "stateMutability": "view",
      "type": "function"
    },
    {
      "inputs": [
        {
          "internalType": "address",
          "name": "owner",
          "type": "address"
        }
      ],
      "name": "balanceOf",
      "outputs": [
        {
          "internalType": "uint256",
          "name": "",
          "type": "uint256"
        }
      ],
      "stateMutability": "view",
      "type": "function"
    },
    {
      "inputs": [
        {
          "internalType": "uint256",
          "name": "startIndex",
          "type": "uint256"
        },
        {
          "internalType": "uint256",
          "name": "count",
          "type": "uint256"
        }
      ],
      "name": "getActivityLogs",
      "outputs": [
        {
          "internalType": "address[]",
          "name": "actors",
          "type": "address[]"
        },
        {
          "internalType": "address[]",
          "name": "targets",
          "type": "address[]"
        },
        {
          "internalType": "string[]",
          "name": "actions",
          "type": "string[]"
        },
        {
          "internalType": "string[]",
          "name": "details",
          "type": "string[]"
        },
        {
          "internalType": "uint256[]",
          "name": "timestamps",
          "type": "uint256[]"
        }
      ],
      "stateMutability": "view",
      "type": "function"
    },
    {
      "inputs": [],
      "name": "getActivityLogsCount",
      "outputs": [
        {
          "internalType": "uint256",
          "name": "",
          "type": "uint256"
        }
      ],
      "stateMutability": "view",
      "type": "function"
    },
    {
      "inputs": [
        {
          "internalType": "uint256",
          "name": "tokenId",
          "type": "uint256"
        }
      ],
      "name": "getApproved",
      "outputs": [
        {
          "internalType": "address",
          "name": "",
          "type": "address"
        }
      ],
      "stateMutability": "view",
      "type": "function"
    },
    {
      "inputs": [
        {
          "internalType": "address",
          "name": "_user",
          "type": "address"
        }
      ],
      "name": "getGithubUsername",
      "outputs": [
        {
          "internalType": "string",
          "name": "",
          "type": "string"
        }
      ],
      "stateMutability": "view",
      "type": "function"
    },
    {
      "inputs": [
        {
          "internalType": "uint256",
          "name": "tokenId",
          "type": "uint256"
        }
      ],
      "name": "getIssueDate",
      "outputs": [
        {
          "internalType": "uint256",
          "name": "",
          "type": "uint256"
        }
      ],
      "stateMutability": "view",
      "type": "function"
    },
    {
      "inputs": [
        {
          "internalType": "uint256",
          "name": "tokenId",
          "type": "uint256"
        }
      ],
      "name": "getIssuer",
      "outputs": [
        {
          "internalType": "address",
          "name": "",
          "type": "address"
        }
      ],
      "stateMutability": "view",
      "type": "function"
    },
    {
      "inputs": [
        {
          "internalType": "address",
          "name": "requester",
          "type": "address"
        }
      ],
      "name": "getIssuerRequest",
      "outputs": [
        {
          "internalType": "address",
          "name": "requesterAddr",
          "type": "address"
        },
        {
          "internalType": "string",
          "name": "reason",
          "type": "string"
        },
        {
          "internalType": "uint256",
          "name": "timestamp",
          "type": "uint256"
        },
        {
          "internalType": "bool",
          "name": "isPending",
          "type": "bool"
        }
      ],
      "stateMutability": "view",
      "type": "function"
    },
    {
      "inputs": [],
      "name": "getPendingRequesters",
      "outputs": [
        {
          "internalType": "address[]",
          "name": "",
          "type": "address[]"
        }
      ],
      "stateMutability": "view",
      "type": "function"
    },
    {
      "inputs": [
        {
          "internalType": "address",
          "name": "owner",
          "type": "address"
        },
        {
          "internalType": "address",
          "name": "operator",
          "type": "address"
        }
      ],
      "name": "isApprovedForAll",
      "outputs": [
        {
          "internalType": "bool",
          "name": "",
          "type": "bool"
        }
      ],
      "stateMutability": "view",
      "type": "function"
    },
    {
      "inputs": [
        {
          "internalType": "address",
          "name": "recipient",
          "type": "address"
        },
        {
          "internalType": "string",
          "name": "ipfsHash",
          "type": "string"
        }
      ],
      "name": "issueCertificate",
      "outputs": [
        {
          "internalType": "uint256",
          "name": "",
          "type": "uint256"
        }
      ],
      "stateMutability": "nonpayable",
      "type": "function"
    },
    {
      "inputs": [
        {
          "internalType": "address",
          "name": "",
          "type": "address"
        }
      ],
      "name": "issuerRequests",
      "outputs": [
        {
          "internalType": "address",
          "name": "requester",
          "type": "address"
        },
        {
          "internalType": "string",
          "name": "reason",
          "type": "string"
        },
        {
          "internalType": "uint256",
          "name": "timestamp",
          "type": "uint256"
        },
        {
          "internalType": "bool",
          "name": "isPending",
          "type": "bool"
        }
      ],
      "stateMutability": "view",
      "type": "function"
    },
    {
      "inputs": [],
      "name": "name",
      "outputs": [
        {
          "internalType": "string",
          "name": "",
          "type": "string"
        }
      ],
      "stateMutability": "view",
      "type": "function"
    },
    {
      "inputs": [],
      "name": "owner",
      "outputs": [
        {
          "internalType": "address",
          "name": "",
          "type": "address"
        }
      ],
      "stateMutability": "view",
      "type": "function"
    },
    {
      "inputs": [
        {
          "internalType": "uint256",
          "name": "tokenId",
          "type": "uint256"
        }
      ],
      "name": "ownerOf",
      "outputs": [
        {
          "internalType": "address",
          "name": "",
          "type": "address"
        }
      ],
      "stateMutability": "view",
      "type": "function"
    },
    {
      "inputs": [
        {
          "internalType": "uint256",
          "name": "",
          "type": "uint256"
        }
      ],
      "name": "pendingRequesters",
      "outputs": [
        {
          "internalType": "address",
          "name": "",
          "type": "address"
        }
      ],
      "stateMutability": "view",
      "type": "function"
    },
    {
      "inputs": [
        {
          "internalType": "address",
          "name": "requester",
          "type": "address"
        }
      ],
      "name": "rejectIssuerRequest",
      "outputs": [],
      "stateMutability": "nonpayable",
      "type": "function"
    },
    {
      "inputs": [],
      "name": "renounceOwnership",
      "outputs": [],
      "stateMutability": "nonpayable",
      "type": "function"
    },
    {
      "inputs": [
        {
          "internalType": "address",
          "name": "issuer",
          "type": "address"
        }
      ],
      "name": "revokeIssuer",
      "outputs": [],
      "stateMutability": "nonpayable",
      "type": "function"
    },
    {
      "inputs": [
        {
          "internalType": "address",
          "name": "from",
          "type": "address"
        },
        {
          "internalType": "address",
          "name": "to",
          "type": "address"
        },
        {
          "internalType": "uint256",
          "name": "tokenId",
          "type": "uint256"
        }
      ],
      "name": "safeTransferFrom",
      "outputs": [],
      "stateMutability": "nonpayable",
      "type": "function"
    },
    {
      "inputs": [
        {
          "internalType": "address",
          "name": "from",
          "type": "address"
        },
        {
          "internalType": "address",
          "name": "to",
          "type": "address"
        },
        {
          "internalType": "uint256",
          "name": "tokenId",
          "type": "uint256"
        },
        {
          "internalType": "bytes",
          "name": "data",
          "type": "bytes"
        }
      ],
      "name": "safeTransferFrom",
      "outputs": [],
      "stateMutability": "nonpayable",
      "type": "function"
    },
    {
      "inputs": [
        {
          "internalType": "address",
          "name": "operator",
          "type": "address"
        },
        {
          "internalType": "bool",
          "name": "approved",
          "type": "bool"
        }
      ],
      "name": "setApprovalForAll",
      "outputs": [],
      "stateMutability": "nonpayable",
      "type": "function"
    },
    {
      "inputs": [
        {
          "internalType": "string",
          "name": "_username",
          "type": "string"
        }
      ],
      "name": "setGithubUsername",
      "outputs": [],
      "stateMutability": "nonpayable",
      "type": "function"
    },
    {
      "inputs": [
        {
          "internalType": "string",
          "name": "reason",
          "type": "string"
        }
      ],
      "name": "submitIssuerRequest",
      "outputs": [],
      "stateMutability": "nonpayable",
      "type": "function"
    },
    {
      "inputs": [
        {
          "internalType": "bytes4",
          "name": "interfaceId",
          "type": "bytes4"
        }
      ],
      "name": "supportsInterface",
      "outputs": [
        {
          "internalType": "bool",
          "name": "",
          "type": "bool"
        }
      ],
      "stateMutability": "view",
      "type": "function"
    },
    {
      "inputs": [],
      "name": "symbol",
      "outputs": [
        {
          "internalType": "string",
          "name": "",
          "type": "string"
        }
      ],
      "stateMutability": "view",
      "type": "function"
    },
    {
      "inputs": [
        {
          "internalType": "uint256",
          "name": "index",
          "type": "uint256"
        }
      ],
      "name": "tokenByIndex",
      "outputs": [
        {
          "internalType": "uint256",
          "name": "",
          "type": "uint256"
        }
      ],
      "stateMutability": "view",
      "type": "function"
    },
    {
      "inputs": [
        {
          "internalType": "address",
          "name": "owner",
          "type": "address"
        },
        {
          "internalType": "uint256",
          "name": "index",
          "type": "uint256"
        }
      ],
      "name": "tokenOfOwnerByIndex",
      "outputs": [
        {
          "internalType": "uint256",
          "name": "",
          "type": "uint256"
        }
      ],
      "stateMutability": "view",
      "type": "function"
    },
    {
      "inputs": [
        {
          "internalType": "uint256",
          "name": "tokenId",
          "type": "uint256"
        }
      ],
      "name": "tokenURI",
      "outputs": [
        {
          "internalType": "string",
          "name": "",
          "type": "string"
        }
      ],
      "stateMutability": "view",
      "type": "function"
    },
    {
      "inputs": [],
      "name": "totalSupply",
      "outputs": [
        {
          "internalType": "uint256",
          "name": "",
          "type": "uint256"
        }
      ],
      "stateMutability": "view",
      "type": "function"
    },
    {
      "inputs": [
        {
          "internalType": "address",
          "name": "from",
          "type": "address"
        },
        {
          "internalType": "address",
          "name": "to",
          "type": "address"
        },
        {
          "internalType": "uint256",
          "name": "tokenId",
          "type": "uint256"
        }
      ],
      "name": "transferFrom",
      "outputs": [],
      "stateMutability": "nonpayable",
      "type": "function"
    },
    {
      "inputs": [
        {
          "internalType": "address",
          "name": "newOwner",
          "type": "address"
        }
      ],
      "name": "transferOwnership",
      "outputs": [],
      "stateMutability": "nonpayable",
      "type": "function"
    }
  ],
  "bytecode": "0x60806040523480156200001157600080fd5b506040518060400160405280601581526020017f536f756c626f756e6420436572746966696361746500000000000000000000008152506040518060400160405280600381526020016253424360e81b8152508160009081620000759190620001a2565b506001620000848282620001a2565b505050620000a16200009b620000a760201b60201c565b620000ab565b6200026e565b3390565b600a80546001600160a01b038381166001600160a01b0319831681179093556040519116919082907f8be0079c531659141344cd1fd0a4f28419497f9722a3daafe3b4186f6b6457e090600090a35050565b634e487b7160e01b600052604160045260246000fd5b600181811c908216806200012857607f821691505b6020821081036200014957634e487b7160e01b600052602260045260246000fd5b50919050565b601f8211156200019d57600081815260208120601f850160051c81016020861015620001785750805b601f850160051c820191505b81811015620001995782815560010162000184565b5050505b505050565b81516001600160401b03811115620001be57620001be620000fd565b620001d681620001cf845462000113565b846200014f565b602080601f8311600181146200020e5760008415620001f55750858301515b600019600386901b1c1916600185901b17855562000199565b600085815260208120601f198616915b828110156200023f578886015182559484019460019091019084016200021e565b50858210156200025e5787850151600019600388901b60f8161c191681555b5050505050600190811b01905550565b6132a0806200027e6000396000f3fe608060405234801561001057600080fd5b506004361061021b5760003560e01c806370a0823111610125578063b88d4fde116100ad578063c9c4faa11161007c578063c9c4faa11461049f578063e985e9c5146104b2578063f2fde38b146104ee578063f6fe8d3e14610501578063f731fa0f1461051657600080fd5b8063b88d4fde14610453578063bb721aab14610466578063c0c043ec14610479578063c87b56dd1461048c57600080fd5b806392089c46116100f457806392089c46146103ff57806395d89b4114610412578063a22cb4651461041a578063a544d4521461042d578063a6b1f6271461044057600080fd5b806370a08231146103af578063715018a6146103c257806371c94a23146103ca5780638da5cb5b146103ee57600080fd5b8063216eaa34116101a8578063436693d511610177578063436693d5146103505780634e9616d3146103635780634f6ccce71461037657806355b1e2ed146103895780636352211e1461039c57600080fd5b8063216eaa34146102f457806323b872dd146103175780632f745c591461032a57806342842e0e1461033d57600080fd5b8063081812fc116101ef578063081812fc14610293578063095ea7b3146102be5780630ac51c6d146102d157806315894461146102e457806318160ddd146102ec57600080fd5b80626296791461022057806301ffc9a7146102355780630386660a1461025d57806306fdde031461027e575b600080fd5b61023361022e366004612986565b610539565b005b6102486102433660046129be565b6105d9565b60405190151581526020015b60405180910390f35b61027061026b3660046129db565b6105ea565b604051908152602001610254565b61028661062d565b6040516102549190612a3a565b6102a66102a13660046129db565b6106bf565b6040516001600160a01b039091168152602001610254565b6102336102cc366004612a4d565b6106e6565b6102a66102df3660046129db565b6107fb565b601354610270565b600854610270565b610307610302366004612986565b610825565b6040516102549493929190612a77565b610233610325366004612ab3565b6108e4565b610270610338366004612a4d565b610928565b61023361034b366004612ab3565b6109be565b61023361035e366004612986565b610a02565b610233610371366004612986565b610ac5565b6102706103843660046129db565b610d5a565b610233610397366004612986565b610ded565b6102a66103aa3660046129db565b61104a565b6102706103bd366004612986565b6110aa565b610233611130565b6103dd6103d8366004612aef565b611144565b604051610254959493929190612baa565b600a546001600160a01b03166102a6565b6102a661040d3660046129db565b61161b565b61028661165e565b610233610428366004612c3d565b61166d565b61028661043b366004612986565b61167c565b61030761044e366004612986565b611728565b610233610461366004612d05565b611835565b610270610474366004612da1565b611880565b610233610487366004612def565b61199c565b61028661049a3660046129db565b6119b5565b6102336104ad366004612def565b6119f5565b6102486104c0366004612e24565b6001600160a01b03918216600090815260056020908152604080832093909416825291909152205460ff1690565b6102336104fc366004612986565b611bf3565b610509611c6c565b6040516102549190612e57565b610248610524366004612986565b60106020526000908152604090205460ff1681565b610541611ccd565b6001600160a01b038116600090815260106020908152604091829020805460ff191690558151808301835260068152655245564f4b4560d01b8183015282516060810190935260258084526105a29333938693929061324690830139611d27565b6040516001600160a01b038216907f95a4c2ae425bb769549aa1a911911ff57c17ae811ae8c8962d0b9746fcb1539790600090a250565b60006105e482611e87565b92915050565b60006105f582611eac565b61061a5760405162461bcd60e51b815260040161061190612e6a565b60405180910390fd5b506000908152600e602052604090205490565b60606000805461063c90612ea1565b80601f016020809104026020016040519081016040528092919081815260200182805461066890612ea1565b80156106b55780601f1061068a576101008083540402835291602001916106b5565b820191906000526020600020905b81548152906001019060200180831161069857829003601f168201915b5050505050905090565b60006106ca82611ec9565b506000908152600460205260409020546001600160a01b031690565b60006106f18261104a565b9050806001600160a01b0316836001600160a01b03160361075e5760405162461bcd60e51b815260206004820152602160248201527f4552433732313a20617070726f76616c20746f2063757272656e74206f776e656044820152603960f91b6064820152608401610611565b336001600160a01b038216148061077a575061077a81336104c0565b6107ec5760405162461bcd60e51b815260206004820152603d60248201527f4552433732313a20617070726f76652063616c6c6572206973206e6f7420746f60448201527f6b656e206f776e6572206f7220617070726f76656420666f7220616c6c0000006064820152608401610611565b6107f68383611f19565b505050565b6012818154811061080b57600080fd5b6000918252602090912001546001600160a01b0316905081565b601160205260009081526040902080546001820180546001600160a01b03909216929161085190612ea1565b80601f016020809104026020016040519081016040528092919081815260200182805461087d90612ea1565b80156108ca5780601f1061089f576101008083540402835291602001916108ca565b820191906000526020600020905b8154815290600101906020018083116108ad57829003601f168201915b50505050600283015460039093015491929160ff16905084565b6001600160a01b038316158061090157506001600160a01b038216155b61091d5760405162461bcd60e51b815260040161061190612edb565b6107f6838383611f87565b6000610933836110aa565b82106109955760405162461bcd60e51b815260206004820152602b60248201527f455243373231456e756d657261626c653a206f776e657220696e646578206f7560448201526a74206f6620626f756e647360a81b6064820152608401610611565b506001600160a01b03919091166000908152600660209081526040808320938352929052205490565b6001600160a01b03831615806109db57506001600160a01b038216155b6109f75760405162461bcd60e51b815260040161061190612edb565b6107f6838383611fb8565b610a0a611ccd565b6001600160a01b038116600090815260106020908152604091829020805460ff19166001179055815180830183526009815268415554484f52495a4560b81b818301528251808401909352601a83527f49737375657220617574686f72697a65642062792061646d696e00000000000091830191909152610a8e9133918491611d27565b6040516001600160a01b038216907f8b4006ca14f23d4e7aa8d120d1ab7c3761d650eefac1a5d6732dbea94b54ea2490600090a250565b610acd611ccd565b6001600160a01b03811660009081526011602052604090206003015460ff16610b2d5760405162461bcd60e51b8152602060048201526012602482015271139bc81c195b991a5b99c81c995c5d595cdd60721b6044820152606401610611565b60005b601254811015610c3557816001600160a01b031660128281548110610b5757610b57612f20565b6000918252602090912001546001600160a01b031603610c235760128054610b8190600190612f4c565b81548110610b9157610b91612f20565b600091825260209091200154601280546001600160a01b039092169183908110610bbd57610bbd612f20565b9060005260206000200160006101000a8154816001600160a01b0302191690836001600160a01b031602179055506012805480610bfc57610bfc612f5f565b600082815260209020810160001990810180546001600160a01b0319169055019055610c35565b80610c2d81612f75565b915050610b30565b506001600160a01b038116600081815260116020818152604080842060038101805460ff19169055815180830190925260068252651491529150d560d21b82840152949093525260019091018054610d179233928592610c9490612ea1565b80601f0160208091040260200160405190810160405280929190818152602001828054610cc090612ea1565b8015610d0d5780601f10610ce257610100808354040283529160200191610d0d565b820191906000526020600020905b815481529060010190602001808311610cf057829003601f168201915b5050505050611d27565b60405142815233906001600160a01b038316907f34c4c32885c4bf4c99685d77a5c26f9d26a32943a87cf0f6cda74a7d70f28b949060200160405180910390a350565b6000610d6560085490565b8210610dc85760405162461bcd60e51b815260206004820152602c60248201527f455243373231456e756d657261626c653a20676c6f62616c20696e646578206f60448201526b7574206f6620626f756e647360a01b6064820152608401610611565b60088281548110610ddb57610ddb612f20565b90600052602060002001549050919050565b610df5611ccd565b6001600160a01b03811660009081526011602052604090206003015460ff16610e555760405162461bcd60e51b8152602060048201526012602482015271139bc81c195b991a5b99c81c995c5d595cdd60721b6044820152606401610611565b60005b601254811015610f5d57816001600160a01b031660128281548110610e7f57610e7f612f20565b6000918252602090912001546001600160a01b031603610f4b5760128054610ea990600190612f4c565b81548110610eb957610eb9612f20565b600091825260209091200154601280546001600160a01b039092169183908110610ee557610ee5612f20565b9060005260206000200160006101000a8154816001600160a01b0302191690836001600160a01b031602179055506012805480610f2457610f24612f5f565b600082815260209020810160001990810180546001600160a01b0319169055019055610f5d565b80610f5581612f75565b915050610e58565b506001600160a01b038116600081815260116020818152604080842060038101805460ff19908116909155601084528286208054909116600190811790915582518084019093526007835266415050524f564560c81b838501529590945291905291018054610fd39233928592610c9490612ea1565b60405142815233906001600160a01b038316907fdc620e306f45d37c2ae7b4ef550a8109786b18a65eb71761fe3bd11566e83fff9060200160405180910390a36040516001600160a01b038216907f8b4006ca14f23d4e7aa8d120d1ab7c3761d650eefac1a5d6732dbea94b54ea2490600090a250565b6000818152600260205260408120546001600160a01b0316806105e45760405162461bcd60e51b8152602060048201526018602482015277115490cdcc8c4e881a5b9d985b1a59081d1bdad95b88125160421b6044820152606401610611565b60006001600160a01b0382166111145760405162461bcd60e51b815260206004820152602960248201527f4552433732313a2061646472657373207a65726f206973206e6f7420612076616044820152683634b21037bbb732b960b91b6064820152608401610611565b506001600160a01b031660009081526003602052604090205490565b611138611ccd565b6111426000611fd3565b565b60135460609081908190819081908088106111e2576040805160008082526020820181815282840182815260608401909452919290611193565b606081526020019060019003908161117e5790505b5060408051600080825260208201909252906111bf565b60608152602001906001900390816111aa5790505b506040805160008082526020820190925290509550955095509550955050611611565b60006111ee888a612f8e565b9050818111156111fb5750805b60006112078a83612f4c565b90508067ffffffffffffffff81111561122257611222612c79565b60405190808252806020026020018201604052801561124b578160200160208202803683370190505b5097508067ffffffffffffffff81111561126757611267612c79565b604051908082528060200260200182016040528015611290578160200160208202803683370190505b5096508067ffffffffffffffff8111156112ac576112ac612c79565b6040519080825280602002602001820160405280156112df57816020015b60608152602001906001900390816112ca5790505b5095508067ffffffffffffffff8111156112fb576112fb612c79565b60405190808252806020026020018201604052801561132e57816020015b60608152602001906001900390816113195790505b5094508067ffffffffffffffff81111561134a5761134a612c79565b604051908082528060200260200182016040528015611373578160200160208202803683370190505b50935060005b8181101561160c5760006013828d611392600189612f4c565b61139c9190612f4c565b6113a69190612f4c565b815481106113b6576113b6612f20565b60009182526020918290206040805160a081018252600590930290910180546001600160a01b039081168452600182015416938301939093526002830180549293929184019161140590612ea1565b80601f016020809104026020016040519081016040528092919081815260200182805461143190612ea1565b801561147e5780601f106114535761010080835404028352916020019161147e565b820191906000526020600020905b81548152906001019060200180831161146157829003601f168201915b5050505050815260200160038201805461149790612ea1565b80601f01602080910402602001604051908101604052809291908181526020018280546114c390612ea1565b80156115105780601f106114e557610100808354040283529160200191611510565b820191906000526020600020905b8154815290600101906020018083116114f357829003601f168201915b50505050508152602001600482015481525050905080600001518a838151811061153c5761153c612f20565b60200260200101906001600160a01b031690816001600160a01b031681525050806020015189838151811061157357611573612f20565b60200260200101906001600160a01b031690816001600160a01b03168152505080604001518883815181106115aa576115aa612f20565b602002602001018190525080606001518783815181106115cc576115cc612f20565b602002602001018190525080608001518683815181106115ee576115ee612f20565b6020908102919091010152508061160481612f75565b915050611379565b505050505b9295509295909350565b600061162682611eac565b6116425760405162461bcd60e51b815260040161061190612e6a565b506000908152600d60205260409020546001600160a01b031690565b60606001805461063c90612ea1565b611678338383612025565b5050565b6001600160a01b0381166000908152600f602052604090208054606091906116a390612ea1565b80601f01602080910402602001604051908101604052809291908181526020018280546116cf90612ea1565b801561171c5780601f106116f15761010080835404028352916020019161171c565b820191906000526020600020905b8154815290600101906020018083116116ff57829003601f168201915b50505050509050919050565b6001600160a01b0380821660009081526011602090815260408083208151608081019092528054909416815260018401805493946060948694859485949093929184019161177590612ea1565b80601f01602080910402602001604051908101604052809291908181526020018280546117a190612ea1565b80156117ee5780601f106117c3576101008083540402835291602001916117ee565b820191906000526020600020905b8154815290600101906020018083116117d157829003601f168201915b5050509183525050600282015460208083019190915260039092015460ff161515604091820152825191830151908301516060909301519199909850919650945092505050565b6001600160a01b038416158061185257506001600160a01b038316155b61186e5760405162461bcd60e51b815260040161061190612edb565b61187a848484846120f3565b50505050565b3360009081526010602052604081205460ff166118df5760405162461bcd60e51b815260206004820152601860248201527f4e6f7420616e20617574686f72697a65642069737375657200000000000000006044820152606401610611565b6118ed600b80546001019055565b60006118f8600b5490565b90506119048482612125565b6000818152600c6020526040902061191c8482612fef565b506000818152600d6020908152604080832080546001600160a01b03191633908117909155600e909252918290204290819055915190916001600160a01b0387169184917ff677e82fac9d852bc5fc4e5f1c53e0d88e4c55767af3a60dcb0e1accb716ea6b9161198d9189916130af565b60405180910390a49392505050565b336000908152600f602052604090206116788282612fef565b60606119c082611eac565b6119dc5760405162461bcd60e51b815260040161061190612e6a565b6000828152600c6020526040902080546116a390612ea1565b3360009081526010602052604090205460ff1615611a555760405162461bcd60e51b815260206004820152601c60248201527f416c726561647920616e20617574686f72697a656420697373756572000000006044820152606401610611565b3360009081526011602052604090206003015460ff1615611ab85760405162461bcd60e51b815260206004820152601760248201527f5265717565737420616c72656164792070656e64696e670000000000000000006044820152606401610611565b6040805160808101825233808252602080830185815242848601526001606085018190526000938452601190925293909120825181546001600160a01b0319166001600160a01b03909116178155925191929190820190611b199082612fef565b5060408281015160028301556060909201516003909101805460ff1916911515919091179055601280546001810182556000919091527fbb8a6a4669ba250d26cd7a459eca9d215f8307e33aebe50379bc5a3617ec3444018054336001600160a01b0319909116811790915581518083019092526007825266149154555154d560ca1b6020830152611bad91819084611d27565b336001600160a01b03167fecd6e44807e162e940cd9c0f6f4ea8e0a1016fd3d59013de69ec2c6b16fe96198242604051611be89291906130af565b60405180910390a250565b611bfb611ccd565b6001600160a01b038116611c605760405162461bcd60e51b815260206004820152602660248201527f4f776e61626c653a206e6577206f776e657220697320746865207a65726f206160448201526564647265737360d01b6064820152608401610611565b611c6981611fd3565b50565b606060128054806020026020016040519081016040528092919081815260200182805480156106b557602002820191906000526020600020905b81546001600160a01b03168152600190910190602001808311611ca6575050505050905090565b600a546001600160a01b031633146111425760405162461bcd60e51b815260206004820181905260248201527f4f776e61626c653a2063616c6c6572206973206e6f7420746865206f776e65726044820152606401610611565b6040805160a0810182526001600160a01b038087168252858116602083019081529282018581526060830185905242608084015260138054600181018255600091909152835160059091027f66de8ffda797e3de9c05e8fc57b3bf0ec28a930d40b0d285d93c06501cf6a090810180549285166001600160a01b031993841617815595517f66de8ffda797e3de9c05e8fc57b3bf0ec28a930d40b0d285d93c06501cf6a0918201805491909516921691909117909255519192917f66de8ffda797e3de9c05e8fc57b3bf0ec28a930d40b0d285d93c06501cf6a09290910190611e109082612fef565b5060608201516003820190611e259082612fef565b50608082015181600401555050826001600160a01b0316846001600160a01b03167f0cf2fb1cf6d8a8677dc6afeaf27c7eb9a72ae4e394c9d58bdaa2762f02f5dcd8848442604051611e79939291906130d1565b60405180910390a350505050565b60006001600160e01b0319821663780e9d6360e01b14806105e457506105e48261213f565b6000908152600260205260409020546001600160a01b0316151590565b611ed281611eac565b611c695760405162461bcd60e51b8152602060048201526018602482015277115490cdcc8c4e881a5b9d985b1a59081d1bdad95b88125160421b6044820152606401610611565b600081815260046020526040902080546001600160a01b0319166001600160a01b0384169081179091558190611f4e8261104a565b6001600160a01b03167f8c5be1e5ebec7d5bd14f71427d1e84f3dd0314c0f7b2291e5b200ac8c7c3b92560405160405180910390a45050565b611f91338261218f565b611fad5760405162461bcd60e51b815260040161061190613107565b6107f683838361220e565b6107f683838360405180602001604052806000815250611835565b600a80546001600160a01b038381166001600160a01b0319831681179093556040519116919082907f8be0079c531659141344cd1fd0a4f28419497f9722a3daafe3b4186f6b6457e090600090a35050565b816001600160a01b0316836001600160a01b0316036120865760405162461bcd60e51b815260206004820152601960248201527f4552433732313a20617070726f766520746f2063616c6c6572000000000000006044820152606401610611565b6001600160a01b03838116600081815260056020908152604080832094871680845294825291829020805460ff191686151590811790915591519182527f17307eab39ab6107e8899845ad3d59bd9653f200f220920489ca2b5937696c31910160405180910390a3505050565b6120fd338361218f565b6121195760405162461bcd60e51b815260040161061190613107565b61187a8484848461237f565b6116788282604051806020016040528060008152506123b2565b60006001600160e01b031982166380ac58cd60e01b148061217057506001600160e01b03198216635b5e139f60e01b145b806105e457506301ffc9a760e01b6001600160e01b03198316146105e4565b60008061219b8361104a565b9050806001600160a01b0316846001600160a01b031614806121e257506001600160a01b0380821660009081526005602090815260408083209388168352929052205460ff165b806122065750836001600160a01b03166121fb846106bf565b6001600160a01b0316145b949350505050565b826001600160a01b03166122218261104a565b6001600160a01b0316146122475760405162461bcd60e51b815260040161061190613154565b6001600160a01b0382166122a95760405162461bcd60e51b8152602060048201526024808201527f4552433732313a207472616e7366657220746f20746865207a65726f206164646044820152637265737360e01b6064820152608401610611565b6122b683838360016123e5565b826001600160a01b03166122c98261104a565b6001600160a01b0316146122ef5760405162461bcd60e51b815260040161061190613154565b600081815260046020908152604080832080546001600160a01b03199081169091556001600160a01b0387811680865260038552838620805460001901905590871680865283862080546001019055868652600290945282852080549092168417909155905184937fddf252ad1be2c89b69c2b068fc378daa952ba7f163c4a11628f55a4df523b3ef91a4505050565b61238a84848461220e565b6123968484848461242a565b61187a5760405162461bcd60e51b815260040161061190613199565b6123bc838361252b565b6123c9600084848461242a565b6107f65760405162461bcd60e51b815260040161061190613199565b6001600160a01b038416158061240257506001600160a01b038316155b61241e5760405162461bcd60e51b815260040161061190612edb565b61187a848484846126a6565b60006001600160a01b0384163b1561252057604051630a85bd0160e11b81526001600160a01b0385169063150b7a029061246e9033908990889088906004016131eb565b6020604051808303816000875af19250505080156124a9575060408051601f3d908101601f191682019092526124a691810190613228565b60015b612506573d8080156124d7576040519150601f19603f3d011682016040523d82523d6000602084013e6124dc565b606091505b5080516000036124fe5760405162461bcd60e51b815260040161061190613199565b805181602001fd5b6001600160e01b031916630a85bd0160e11b149050612206565b506001949350505050565b6001600160a01b0382166125815760405162461bcd60e51b815260206004820181905260248201527f4552433732313a206d696e7420746f20746865207a65726f20616464726573736044820152606401610611565b61258a81611eac565b156125d75760405162461bcd60e51b815260206004820152601c60248201527f4552433732313a20746f6b656e20616c7265616479206d696e746564000000006044820152606401610611565b6125e56000838360016123e5565b6125ee81611eac565b1561263b5760405162461bcd60e51b815260206004820152601c60248201527f4552433732313a20746f6b656e20616c7265616479206d696e746564000000006044820152606401610611565b6001600160a01b038216600081815260036020908152604080832080546001019055848352600290915280822080546001600160a01b0319168417905551839291907fddf252ad1be2c89b69c2b068fc378daa952ba7f163c4a11628f55a4df523b3ef908290a45050565b60018111156127155760405162461bcd60e51b815260206004820152603560248201527f455243373231456e756d657261626c653a20636f6e7365637574697665207472604482015274185b9cd9995c9cc81b9bdd081cdd5c1c1bdc9d1959605a1b6064820152608401610611565b816001600160a01b0385166127715761276c81600880546000838152600960205260408120829055600182018355919091527ff3f7a9fe364faab93b216da50a3214154f22a0a2b415b23a84c8169e8b636ee30155565b612794565b836001600160a01b0316856001600160a01b0316146127945761279485826127da565b6001600160a01b0384166127b0576127ab81612877565b6127d3565b846001600160a01b0316846001600160a01b0316146127d3576127d38482612926565b5050505050565b600060016127e7846110aa565b6127f19190612f4c565b600083815260076020526040902054909150808214612844576001600160a01b03841660009081526006602090815260408083208584528252808320548484528184208190558352600790915290208190555b5060009182526007602090815260408084208490556001600160a01b039094168352600681528383209183525290812055565b60085460009061288990600190612f4c565b600083815260096020526040812054600880549394509092849081106128b1576128b1612f20565b9060005260206000200154905080600883815481106128d2576128d2612f20565b600091825260208083209091019290925582815260099091526040808220849055858252812055600880548061290a5761290a612f5f565b6001900381819060005260206000200160009055905550505050565b6000612931836110aa565b6001600160a01b039093166000908152600660209081526040808320868452825280832085905593825260079052919091209190915550565b80356001600160a01b038116811461298157600080fd5b919050565b60006020828403121561299857600080fd5b6129a18261296a565b9392505050565b6001600160e01b031981168114611c6957600080fd5b6000602082840312156129d057600080fd5b81356129a1816129a8565b6000602082840312156129ed57600080fd5b5035919050565b6000815180845260005b81811015612a1a576020818501810151868301820152016129fe565b506000602082860101526020601f19601f83011685010191505092915050565b6020815260006129a160208301846129f4565b60008060408385031215612a6057600080fd5b612a698361296a565b946020939093013593505050565b6001600160a01b0385168152608060208201819052600090612a9b908301866129f4565b60408301949094525090151560609091015292915050565b600080600060608486031215612ac857600080fd5b612ad18461296a565b9250612adf6020850161296a565b9150604084013590509250925092565b60008060408385031215612b0257600080fd5b50508035926020909101359150565b600081518084526020808501945080840160005b83811015612b4a5781516001600160a01b031687529582019590820190600101612b25565b509495945050505050565b600081518084526020808501808196508360051b8101915082860160005b85811015612b9d578284038952612b8b8483516129f4565b98850198935090840190600101612b73565b5091979650505050505050565b60a081526000612bbd60a0830188612b11565b602083820381850152612bd08289612b11565b91508382036040850152612be48288612b55565b91508382036060850152612bf88287612b55565b8481036080860152855180825282870193509082019060005b81811015612c2d57845183529383019391830191600101612c11565b50909a9950505050505050505050565b60008060408385031215612c5057600080fd5b612c598361296a565b915060208301358015158114612c6e57600080fd5b809150509250929050565b634e487b7160e01b600052604160045260246000fd5b600067ffffffffffffffff80841115612caa57612caa612c79565b604051601f8501601f19908116603f01168101908282118183101715612cd257612cd2612c79565b81604052809350858152868686011115612ceb57600080fd5b858560208301376000602087830101525050509392505050565b60008060008060808587031215612d1b57600080fd5b612d248561296a565b9350612d326020860161296a565b925060408501359150606085013567ffffffffffffffff811115612d5557600080fd5b8501601f81018713612d6657600080fd5b612d7587823560208401612c8f565b91505092959194509250565b600082601f830112612d9257600080fd5b6129a183833560208501612c8f565b60008060408385031215612db457600080fd5b612dbd8361296a565b9150602083013567ffffffffffffffff811115612dd957600080fd5b612de585828601612d81565b9150509250929050565b600060208284031215612e0157600080fd5b813567ffffffffffffffff811115612e1857600080fd5b61220684828501612d81565b60008060408385031215612e3757600080fd5b612e408361296a565b9150612e4e6020840161296a565b90509250929050565b6020815260006129a16020830184612b11565b6020808252601a908201527f436572746966696361746520646f6573206e6f74206578697374000000000000604082015260600190565b600181811c90821680612eb557607f821691505b602082108103612ed557634e487b7160e01b600052602260045260246000fd5b50919050565b60208082526025908201527f536f756c626f756e643a20746f6b656e207472616e73666572206e6f7420616c6040820152641b1bddd95960da1b606082015260800190565b634e487b7160e01b600052603260045260246000fd5b634e487b7160e01b600052601160045260246000fd5b818103818111156105e4576105e4612f36565b634e487b7160e01b600052603160045260246000fd5b600060018201612f8757612f87612f36565b5060010190565b808201808211156105e4576105e4612f36565b601f8211156107f657600081815260208120601f850160051c81016020861015612fc85750805b601f850160051c820191505b81811015612fe757828155600101612fd4565b505050505050565b815167ffffffffffffffff81111561300957613009612c79565b61301d816130178454612ea1565b84612fa1565b602080601f831160018114613052576000841561303a5750858301515b600019600386901b1c1916600185901b178555612fe7565b600085815260208120601f198616915b8281101561308157888601518255948401946001909101908401613062565b508582101561309f5787850151600019600388901b60f8161c191681555b5050505050600190811b01905550565b6040815260006130c260408301856129f4565b90508260208301529392505050565b6060815260006130e460608301866129f4565b82810360208401526130f681866129f4565b915050826040830152949350505050565b6020808252602d908201527f4552433732313a2063616c6c6572206973206e6f7420746f6b656e206f776e6560408201526c1c881bdc88185c1c1c9bdd9959609a1b606082015260800190565b60208082526025908201527f4552433732313a207472616e736665722066726f6d20696e636f72726563742060408201526437bbb732b960d91b606082015260800190565b60208082526032908201527f4552433732313a207472616e7366657220746f206e6f6e20455243373231526560408201527131b2b4bb32b91034b6b83632b6b2b73a32b960711b606082015260800190565b6001600160a01b038581168252841660208201526040810183905260806060820181905260009061321e908301846129f4565b9695505050505050565b60006020828403121561323a57600080fd5b81516129a1816129a856fe49737375657220617574686f72697a6174696f6e207265766f6b65642062792061646d696ea2646970667358221220ba608e9aa98e3a391ad964c4b5d1daad8e5a2c2ad56027e23c6c2c8aa5158b2e64736f6c63430008140033",
  "linkReferences": {},
  "deployedLinkReferences": {}
}